:02000000AF2827
:100008007E1480318B1C09280A281B2822008D1594
:100018000D168D161F30F8007130F7001E30890B51
:100028001328F70B1328F80B132800328B10200025
:10003800111C1F2820282E280130F7007708FD07FB
:100048000C307D06031D29282A282D28FD010130A2
:10005800A8001110911C3128322872280130F700AD
:100068007708AB0705302B06031D3B283C28702872
:10007800AB017B03031D412842284E2803102200B0
:100088008D1D0314031849284C2822008D154E286D
:1000980022008D117A03031D522853285F2803106C
:1000A80022000D1E031403185A285D2822000D167D
:1000B8005F2822000D127903031D63286428702825
:1000C800031022008D1E031403186B286E282200CB
:1000D8008D16702822008D1220009110911E75280F
:1000E8007628AD2882316D228031013A031D7D28A2
:1000F8007E28872823001D1219081908FC010130E1
:100108002000A80092287C08203E86008701230052
:10011800190881000130F7007708FC0704307C06D5
:10012800031D97289828AD2823001D1219081908BF
:10013800FC01FD018131FD218031013A031DA52813
:10014800A628AA2801302000A900AD2801302000E7
:10015800A8007E100900B0288231A2228031B800A0
:100168008231A3228031B900F901FA01FB01FC01B7
:10017800FD01A001A101A201A301A401A501A601FD
:10018800A701A801A901AA01AB017E102000CC2873
:100198008231322280318B1720002803031DD52895
:1001A800D6288A29A801AA010130B9000430200004
:1001B800B7000C30B6003330890BE028B60BE028C6
:1001C800B70BE02800322300190819081D168A29E0
:1001D8003903031DF028F1280829B90122000C1160
:1001E80000302000AC00AD000030AE00AF00403061
:1001F80081319D21803122000D128D120130FB00CA
:10020800FA01F90120001C152903031D0C290D29E9
:10021800D028A9012300190819081D162C29FF3018
:1002280082317E22803101302000AA000130B900DD
:10023800D028FF3082317E228031D028CC308231E4
:100248007E228031D028003082317E228031D02831
:1002580020002008B600B7013708003A03193529ED
:1002680027293608013A03191329033A03191D29C6
:10027800013A03199B29063A031922292729390328
:10028800031D472948295329B90122008D110D1250
:100298008D1220001C1122008D110D128D162000C8
:1002A8002903031D58295929D028A9017229FF308B
:1002B80082317E22803185290F3082317E22803141
:1002C8008529AA010130B900FF3082317E228031B0
:1002D8008529003082317E22803185292008B600A8
:1002E800B7013708003A03197A296D293608013A07
:1002F80003195B29033A03196529073A0319602989
:100308006D292300190819081D16D02820002A086D
:10031800B600B7013708003A03199329D0283608E0
:10032800003A0319EC28013A03194329D028D028A8
:10033800AF282000B200B3012E0C2200031C8C1140
:1003480003188C150C14000022000C1020002F0834
:10035800B1002E08B000B136B00C3008AE0031083C
:10036800AF000130B0003008B30710303302031C6F
:10037800BE29BF29A029B4012C0C2200031C8C1112
:1003880003188C150C14000022000C1020002D08F6
:10039800B1002C08B000B136B00C3008AC00310800
:1003A800AD000130B0003008B40710303402031C2F
:1003B800DE29DF29C029B501320C2200031C8C116B
:1003C80003188C150C14000022000C102000323683
:1003D800B2000130B0003008B50708303502031C00
:1003E800F629F729E02922008C14000022008C103D
:1003F8000800F401F501F6017608203E8600870121
:100408000108F000F1017008F4077108F53D0130AA
:10041800F0007008F60704307602031C142A152A27
:10042800002AFF307405F00000307505F1007508EA
:10043800F3007408F2007308F200F3017008720701
:10044800F4007108733DF500740A7504031D2D2A24
:100458002E2A302A0130312A0030080022008C115F
:100468000C118C100C1021008C110C118C100C101C
:1004780022008D110D128D128D1321008D110D1278
:100488008D128D130D138B100B1682315A22823167
:1004980082319C22823182318A22823182319422B5
:1004A80082312000970196011814080023008D104E
:1004B80021008D140D11263023009E0090309D00E0
:1004C8009F1533309B00190819080B172100911646
:1004D800080023009D18712A722A762A1D1D752A84
:1004E800762A7C2A9D13000023009D1701307D2A5F
:1004F800003008002000AC0023009E1C842A852AB6
:10050800802A20002C0823009A0008002000970168
:100518009601303098000B171110210011140800B3
:100528007B3020009C000B179110210091140800CB
:10053800113021009D0020309E0008004034013415
:020000040001F9
:08000000FF3FFF3FFF3FFF3F00
:04000E00E23FFF1FAF
:00000001FF
